:040000000128FE2FA6
:10019C00253464340034413454340D340A3400347E
:1001AC002000911ED628230019080800F000230017
:1001BC009E1CDD2870089A0008002F346D347534AD
:1001CC0064346134723452346F34743461340034B6
:1001DC00413454342B34433449344634533452343C
:1001EC000D340A34003421000C108C142030230000
:1001FC009E0090309D0000309C0019309B00080040
:10020C00413454342B34433449345034533445340E
:10021C004E3444343D3430342C3400344134543472
:10022C002B344334493450344D34553458343D34E4
:10023C0031340D340A340034413454342B344334C7
:10024C004934503443344C344F34533445343D34B6
:10025C0030340D340A34003449346E34763461341D
:10026C006C346934643420347234653471347534CC
:10027C006534733474340D340A34003441345434DA
:10028C002B34433449345034533445344E34443491
:10029C003D3430342C34313436340D340A3400349B
:1002AC00413454342B34433449345034533445346E
:1002BC0052345634453452343D3431342C34383481
:1002CC0030340D340A340034F300F401F5017408B1
:1002DC007307F200720886008701010803197B2955
:1002EC000130F4070030F53D6D297508F1007408F4
:1002FC00F0000800F300F401F50171087502031D0C
:10030C008929700874020318080074087307F20036
:10031C00720886008701D62081000130F407003076
:10032C00F53D8329F401F501710874078400720806
:10033C00753D8500120003190800710874078400CC
:10034C007208753D85000008DC200130F407003090
:10035C00F53D9A29FB01F91FBA29F809F909F80AA0
:10036C000319F90AFB01FB0A7808F0007908F1007F
:10037C00F2018E30F3007B08F4006A237008F80059
:10038C007108F9007208FA0008007808790403195A
:10039C00F229FD01FD0AF91BDD290130F835F90DB3
:1003AC00890BD4290130FC007C08FD07D129790880
:1003BC007B02031DE32978087A02031CE9297808DB
:1003CC00FA027908FB3B0130F936F80C890BEA2963
:1003DC000130FD02031DDD297B08F9007A08F800C5
:1003EC000800013400340A34003464340034E83436
:1003FC00033410342734413454342B3443345734BD
:10040C004A34413450343D34223457344934463420
:10041C00493420344E3441344D34453422342C3458
:10042C002234503441345334533457344F345234CF
:10043C00443422340D340A340034F21F322A70084A
:10044C00003CF0007108031C710F003CF1007208B5
:10045C00031C720F803CF200F51F412A7308003C0C
:10046C00F3007408031C740F003CF4007508031CA3
:10047C00750F803CF5008030F2068030F50675086B
:10048C007202031D080074087102031D0800730832
:10049C0070020800F501F6017008710403197F2A37
:1004AC00F701F70AF11B642A0130F035F10D890BC5
:1004BC005B2A0130F4007408F707582A0130F5352F
:1004CC00F60D890B652A71087302031D6F2A7008DB
:1004DC007202031C762A7008F2027108F33B751441
:1004EC000130F136F00C890B772A0130F702031D2D
:1004FC00642A7608F1007508F00008003E08F00048
:10050C003F08F1004008F2000030F3000030F40026
:10051C000030F50023220318AC2A3E08FB003F08EC
:10052C00FC004008FD000030F8000030F900BF303E
:10053C00FA0003267808A6007908A7007A08A80014
:10054C00CE232708BF002608BE0008003E08FB008B
:10055C003F08FC004008FD000030F8000030F900B6
:10056C003F30FA0003267808A6007908A7007A081D
:10057C00A800CE232708BF002608BE0008000330C1
:10058C00890BC62A000021009D149D18CB2A1C083B
:10059C002000C70021001B082000C6000030AF005F
:1005AC008030B0004430B1000030A000A030A10079
:1005BC004030A2004708F9004608F800B02178083E
:1005CC00A3007908A4007A08A500C1242008B20071
:1005DC002108B3002208B4003F242F08C3003008C0
:1005EC00C4003108C500D730AF002330B0003C3018
:1005FC00B1004308B2004408B3004508B4003F24DE
:10060C002F08BE003008BF003108C00084223F080C
:10061C00C9003E08C8004908C2004808C1000800CB
:10062C00F7007708FB007008840071088500120041
:10063C00031D622B770808007B08F8007108FA008C
:10064C007008F9004F2B790884007A088500120095
:10065C000319552B790884007A0885000008F200EC
:10066C007808860087010108F300F4017408F6008D
:10067C0072087302F500031CF60375087604031D5B
:10068C00552B0130F2007208F8070130F9070030E1
:10069C00FA3D7808860087010108031D292B79088B
:1006AC0084007A0885001200031D5E2B7B0808006D
:1006BC000130F2007208FB077B08860087010108F5
:1006CC00031D222B0030080073080319722B7208CB
:1006DC0071047004031D832B0030F0000030F10016
:1006EC000030F20008000130F5007508F307013006
:1006FC00F236F10CF00C890B7E2BFE3072050319CF
:10070C009C2B792B0130F5007508F3070130F007AD
:10071C00003003180130F107003003180130F207E4
:10072C000130F236F10CF00C890B972BFF3072056F
:10073C000319AD2B882B02307302031CAF2B013035
:10074C00F3020130F035F10DF20D890BA82BF11FDE
:10075C00A12B7318B72BFF30F0057F30F105FF305C
:10076C00F2050310F30C7308F500F601F7011030D5
:10077C00F535F60DF70D890BBE2B7508F0047608D0
:10078C00F1047708F204740803190800F217080042
:10079C002608AA002708AB002808AC0003102B0D74
:1007AC002C0DB2003208031DE42B0030A9000030E0
:1007BC00A8000030A7000030A60008002608AA00F8
:1007CC002708AB002808AC001730AC36AB0CAA0CD1
:1007DC00890BEB2B2A08AD00A717FF30A605FF30BD
:1007EC00A7050030A8052608AE002708AF0028088A
:1007FC00B000B1018E30B202B21F172C3208803A11
:10080C008F3E031CDB2B0130B136B00CAF0CAE0CA1
:10081C00890B0A2C0130AA002A08B2070319282CCC
:10082C00092C183032020318DB2B32080319282C40
:10083C000130AE35AF0DB00DB10D890B1F2C013051
:10084C00B2021B2C2D080319362CAE09AF09B009C6
:10085C00B109AE0A0319AF0A0319B00A0319B10A98
:10086C003108A9003008A8002F08A7002E08A60000
:10087C0008003208B5003308B6003408B70003107E
:10088C00360D370DBC003C08031D532C0030AF0057
:10089C000030B0000030B10008002F08B50030085F
:1008AC00B6003108B7000310360D370DBD003D08FA
:1008BC00031D672C0030AF000030B0000030B100D9
:1008CC0008000030B9000030BA000030BB0089309D
:1008DC003D07B5003508BC023408BD003108B50031
:1008EC003508BD068030B5003508BD05B317FF309F
:1008FC00B205FF30B3050030B405B017FF30AF05BB
:10090C00FF30B0050030B1051830B8000130B935F2
:10091C00BA0DBB0D890B8D2C31083402031D9C2C98
:10092C0030083302031D9C2C2F083202031CA52C0B
:10093C002F08B2023008B33B3108B43B39140130F4
:10094C00B235B30DB40D890BA62C0130B802031DC2
:10095C008C2C3908F0003A08F1003B08F2003C08F6
:10096C00F3003D08F4006A237008AF007108B00072
:10097C007208B10008002008A6002108A700220870
:10098C00A8000310270D280DA9002908031DD52C3C
:10099C000030A0000030A1000030A20008002308A5
:1009AC00A6002408A7002508A8000310270D280D71
:1009BC00AE002E08031DE92C0030A0000030A10071
:1009CC000030A20008002E087B3EA6002608A907CE
:1009DC002208AE002508A6002608AE068030A60028
:1009EC002608AE05A117A417FF30A305FF30A405F8
:1009FC000030A5050030AA000030AB000030AC0080
:100A0C000730AD00201C102D2308AA072408AB3D8D
:100A1C002508AC3D0130A236A10CA00C890B112D80
:100A2C000130A335A40DA50D890B172D0130AD0296
:100A3C00031D082D0930AD00201C2A2D2308AA0700
:100A4C002408AB3D2508AC3D0130A236A10CA00C0E
:100A5C00890B2B2D0130AC36AB0CAA0C890B312D2C
:100A6C000130AD02031D222D2A08F0002B08F100E5
:100A7C002C08F2002908F3002E08F4006A237008F1
:100A8C00A0007108A1007208A2000800AD0022307D
:100A9C00A8002108A5002008A400A00A0319A10A97
:100AAC0024088400250885000008AE002E080319D0
:100ABC00FE2D25302E0603196D2D2D08860087017D
:100ACC002E0881000130A4002408AD074F2DA90188
:100ADC002108A5002008A400A00A0319A10A2408D3
:100AEC008400250885000008AE00003A0319FE2D8D
:100AFC00643A0319852D0D3A0319852D4F2D2808BD
:100B0C0086008701403FAB00413FAC000230A4009F
:100B1C002408A807AC1F9B2D0330A4002408A904AB
:100B2C00AB09AC09AB0A0319AC0AAE01AE0A2E082C
:100B3C00A400A501A435A50DF730240784000130CD
:100B4C00253D80388500003FA600013FA7002708FF
:100B5C002C02031DB32D26082B02031CBD2D0130C6
:100B6C00A4002408AE0705302E06031D9D2D290870
:100B7C0003390319CA2D2D08860087012D308100F9
:100B8C000130A4002408AD072E08AA00FF30A400F1
:100B9C002408AA072A0A03194F2D0A30F80000303E
:100BAC00F9002A08A400A501A435A50DF7302407E7
:100BBC0084000130253D80388500003FF000013F66
:100BCC00F1002C08F3002B08F20050227108FB00F6
:100BDC007008FA00CB217808303EAE002D08860054
:100BEC0087012E0881000130A4002408AD07CC2D0C
:100BFC002D0886008701810108007808A00079087B
:100C0C00A1007A08A2000310210D220DA5007B087B
:100C1C00A0007C08A1007D08A2000310210D220D6C
:100C2C00A40025080319262E2408250203182D2EAE
:100C3C002408A0002508A00219302002031C2D2E28
:100C4C007B08F8007C08F9007D08FA0008002408ED
:100C5C00031908002508240203183C2E2508A000BF
:100C6C002408A00219302002031808000630A30043
:100C7C00FA1BA317FD1B2317F917FF30F805FF30DC
:100C8C00F9050030FA05FC17FF30FB05FF30FC05B9
:100C9C000030FD05240825020318762E0130FB35A3
:100CAC00FC0DFD0D890B552E0130A40224082506E0
:100CBC000319712E0130A302230807390319712E71
:100CCC00542E0130FA36F90CF80C890B682E0130D1
:100CDC00A0002008A5072508240603199B2E672EC3
:100CEC002508240203189B2E0130F835F90DFA0D56
:100CFC00890B7B2E0130A502240825060319972E9B
:100D0C000130A302230807390319972E7A2E0130DC
:100D1C00FD36FC0CFB0C890B8E2E0130A00020083C
:100D2C00A40725082406031D8D2EA31FAD2EFF300E
:100D3C00F806FF30F906FF30FA060130F8070030EC
:100D4C0003180130F907003003180130FA07231F8C
:100D5C00BF2EFF30FB06FF30FC06FF30FD060130D6
:100D6C00FB07003003180130FC070030031801307A
:100D7C00FD07A3017808FB077908FC3D7A08FD3DC7
:100D8C00FD1FDA2EFF30FB06FF30FC06FF30FD06A0
:100D9C000130FB07003003180130FC07003003184A
:100DAC000130FD07A301A30A7B08F0007C08F100C9
:100DBC007D08F2002508F3002308F4006A2370086C
:100DCC00F8007108F9007208FA000800F9201030D8
:100DDC002000CB003930CA000D30890BF32ECA0B22
:100DEC00F32ECB0BF32E0032D130F1008030F20019
:100DFC00982106302000CB001330CA00AD30890B8F
:100E0C00052FCA0B052FCB0B052F00320130F1003B
:100E1C008230F20098211A302000CB005E30CA00DC
:100E2C006E30890B172FCA0B172FCB0B172F000007
:100E3C00EE30F1008030F20098210B302000CB0016
:100E4C002630CA005D30890B292FCA0B292FCB0BFA
:100E5C00292F00321430F1008130F20098210B3030
:100E6C002000CB002630CA005D30890B3B2FCA0B0B
:100E7C003B2FCB0B3B2F00325630F1008130F20070
:100E8C0098210B302000CB002630CA005D30890B36
:100E9C004D2FCA0B4D2FCB0B4D2F00322000911E26
:100EAC00EB2F4030F0000030F100A0308021E33017
:100EBC00F0008030F100A0301623003A0319B52F52
:100ECC00C5224208E1004108E000CE30A00080308D
:100EDC00A1006108A3006008A20056304C25CE305A
:100EEC00A0008030A10056306A217108A300700860
:100EFC00A2004C304C250630F1008130F2009821D4
:100F0C004C30F1000030F20098212030F10082309A
:100F1C00F200982106302000CB001330CA00AD300F
:100F2C00890B962FCA0B962FCB0B962F003256306F
:100F3C00F1000030F20098212030F1008230F200F4
:100F4C00982106302000CB001330CA00AD30890B3D
:100F5C00AD2FCA0BAD2FCB0BAD2F0032D92F443098
:100F6C00F1008130F200982106302000CB001330C4
:100F7C00CA00AD30890BC02FCA0BC02FCB0BC02FB2
:100F8C0000323230F1008130F2009821063020001E
:100F9C00CB001330CA00AD30890BD22FCA0BD22F25
:100FAC00CB0BD22F00322230F1008130F20098218D
:100FBC0006302000CB001330CA00AD30890BE42F73
:100FCC00CA0BE42FCB0BE42F00320B302000CB00EC
:100FDC002630CA005D30890BF12FCA0BF12FCB0BD9
:100FEC00F12F0032D130F1008030F2009821542FD3
:040FFC002000EC2EB7
:00000001FF
